{
  "_format": "hh-sol-artifact-1",
  "contractName": "SwapVerse",
  "sourceName": "contracts/SwapVerse.sol",
  "abi": [
    {
      "inputs": [
        {
          "internalType": "address",
          "name": "token_address_1",
          "type": "address"
        },
        {
          "internalType": "address",
          "name": "token_address_2",
          "type": "address"
        }
      ],
      "stateMutability": "nonpayable",
      "type": "constructor"
    },
    {
      "anonymous": false,
      "inputs": [
        {
          "indexed": false,
          "internalType": "address",
          "name": "from",
          "type": "address"
        },
        {
          "indexed": false,
          "internalType": "uint256",
          "name": "amount",
          "type": "uint256"
        }
      ],
      "name": "AssetReceived",
      "type": "event"
    },
    {
      "anonymous": false,
      "inputs": [
        {
          "indexed": false,
          "internalType": "uint256",
          "name": "oid",
          "type": "uint256"
        }
      ],
      "name": "DeletedOrderEvent",
      "type": "event"
    },
    {
      "anonymous": false,
      "inputs": [
        {
          "indexed": false,
          "internalType": "address",
          "name": "adr",
          "type": "address"
        }
      ],
      "name": "ParticipantAddedEvent",
      "type": "event"
    },
    {
      "anonymous": false,
      "inputs": [
        {
          "indexed": false,
          "internalType": "address",
          "name": "adr",
          "type": "address"
        }
      ],
      "name": "ParticipantRemovedEvent",
      "type": "event"
    },
    {
      "anonymous": false,
      "inputs": [
        {
          "components": [
            {
              "internalType": "address",
              "name": "owner",
              "type": "address"
            },
            {
              "internalType": "uint256",
              "name": "id",
              "type": "uint256"
            },
            {
              "internalType": "bool",
              "name": "is_buy",
              "type": "bool"
            },
            {
              "internalType": "uint256",
              "name": "size",
              "type": "uint256"
            },
            {
              "internalType": "uint256",
              "name": "price",
              "type": "uint256"
            }
          ],
          "indexed": false,
          "internalType": "struct Order",
          "name": "order",
          "type": "tuple"
        }
      ],
      "name": "PlacedOrderEvent",
      "type": "event"
    },
    {
      "anonymous": false,
      "inputs": [
        {
          "components": [
            {
              "internalType": "address",
              "name": "owner",
              "type": "address"
            },
            {
              "internalType": "uint256",
              "name": "id",
              "type": "uint256"
            },
            {
              "internalType": "bool",
              "name": "is_buy",
              "type": "bool"
            },
            {
              "internalType": "uint256",
              "name": "size",
              "type": "uint256"
            },
            {
              "internalType": "uint256",
              "name": "price",
              "type": "uint256"
            }
          ],
          "indexed": false,
          "internalType": "struct Order",
          "name": "order",
          "type": "tuple"
        }
      ],
      "name": "PlacingOrderEvent",
      "type": "event"
    },
    {
      "anonymous": false,
      "inputs": [
        {
          "indexed": false,
          "internalType": "address",
          "name": "from_participant",
          "type": "address"
        },
        {
          "indexed": false,
          "internalType": "address",
          "name": "to_participant",
          "type": "address"
        },
        {
          "indexed": false,
          "internalType": "address",
          "name": "token",
          "type": "address"
        },
        {
          "indexed": false,
          "internalType": "uint256",
          "name": "amount",
          "type": "uint256"
        }
      ],
      "name": "SettlementInstructionEvent",
      "type": "event"
    },
    {
      "anonymous": false,
      "inputs": [
        {
          "components": [
            {
              "internalType": "address",
              "name": "owner",
              "type": "address"
            },
            {
              "internalType": "uint256",
              "name": "id",
              "type": "uint256"
            },
            {
              "internalType": "bool",
              "name": "is_buy",
              "type": "bool"
            },
            {
              "internalType": "uint256",
              "name": "size",
              "type": "uint256"
            },
            {
              "internalType": "uint256",
              "name": "price",
              "type": "uint256"
            }
          ],
          "indexed": false,
          "internalType": "struct Order",
          "name": "leg1",
          "type": "tuple"
        },
        {
          "components": [
            {
              "internalType": "address",
              "name": "owner",
              "type": "address"
            },
            {
              "internalType": "uint256",
              "name": "id",
              "type": "uint256"
            },
            {
              "internalType": "bool",
              "name": "is_buy",
              "type": "bool"
            },
            {
              "internalType": "uint256",
              "name": "size",
              "type": "uint256"
            },
            {
              "internalType": "uint256",
              "name": "price",
              "type": "uint256"
            }
          ],
          "indexed": false,
          "internalType": "struct Order",
          "name": "leg2",
          "type": "tuple"
        }
      ],
      "name": "TradeEvent",
      "type": "event"
    },
    {
      "anonymous": false,
      "inputs": [],
      "name": "TradingAllowedEvent",
      "type": "event"
    },
    {
      "anonymous": false,
      "inputs": [],
      "name": "TradingStoppedEvent",
      "type": "event"
    },
    {
      "inputs": [
        {
          "internalType": "address",
          "name": "participant",
          "type": "address"
        }
      ],
      "name": "add_participant",
      "outputs": [],
      "stateMutability": "nonpayable",
      "type": "function"
    },
    {
      "inputs": [],
      "name": "allow_trading",
      "outputs": [],
      "stateMutability": "nonpayable",
      "type": "function"
    },
    {
      "inputs": [],
      "name": "am_i_allowed",
      "outputs": [],
      "stateMutability": "view",
      "type": "function"
    },
    {
      "inputs": [
        {
          "internalType": "uint256",
          "name": "price",
          "type": "uint256"
        }
      ],
      "name": "buy_order_ids",
      "outputs": [
        {
          "internalType": "uint256[]",
          "name": "",
          "type": "uint256[]"
        }
      ],
      "stateMutability": "view",
      "type": "function"
    },
    {
      "inputs": [
        {
          "internalType": "uint256",
          "name": "price",
          "type": "uint256"
        }
      ],
      "name": "buy_orders",
      "outputs": [
        {
          "components": [
            {
              "internalType": "address",
              "name": "owner",
              "type": "address"
            },
            {
              "internalType": "uint256",
              "name": "id",
              "type": "uint256"
            },
            {
              "internalType": "bool",
              "name": "is_buy",
              "type": "bool"
            },
            {
              "internalType": "uint256",
              "name": "size",
              "type": "uint256"
            },
            {
              "internalType": "uint256",
              "name": "price",
              "type": "uint256"
            }
          ],
          "internalType": "struct Order[]",
          "name": "",
          "type": "tuple[]"
        }
      ],
      "stateMutability": "view",
      "type": "function"
    },
    {
      "inputs": [],
      "name": "buy_prices",
      "outputs": [
        {
          "internalType": "uint256[]",
          "name": "",
          "type": "uint256[]"
        }
      ],
      "stateMutability": "view",
      "type": "function"
    },
    {
      "inputs": [],
      "name": "current_order_id",
      "outputs": [
        {
          "internalType": "uint256",
          "name": "",
          "type": "uint256"
        }
      ],
      "stateMutability": "view",
      "type": "function"
    },
    {
      "inputs": [
        {
          "internalType": "uint256",
          "name": "order_id",
          "type": "uint256"
        }
      ],
      "name": "delete_order",
      "outputs": [
        {
          "internalType": "bool",
          "name": "",
          "type": "bool"
        }
      ],
      "stateMutability": "nonpayable",
      "type": "function"
    },
    {
      "inputs": [
        {
          "internalType": "uint256",
          "name": "order_id",
          "type": "uint256"
        }
      ],
      "name": "get_order",
      "outputs": [
        {
          "components": [
            {
              "internalType": "address",
              "name": "owner",
              "type": "address"
            },
            {
              "internalType": "uint256",
              "name": "id",
              "type": "uint256"
            },
            {
              "internalType": "bool",
              "name": "is_buy",
              "type": "bool"
            },
            {
              "internalType": "uint256",
              "name": "size",
              "type": "uint256"
            },
            {
              "internalType": "uint256",
              "name": "price",
              "type": "uint256"
            }
          ],
          "internalType": "struct Order",
          "name": "",
          "type": "tuple"
        }
      ],
      "stateMutability": "view",
      "type": "function"
    },
    {
      "inputs": [
        {
          "internalType": "uint256",
          "name": "id",
          "type": "uint256"
        }
      ],
      "name": "get_order_tuple",
      "outputs": [
        {
          "internalType": "address",
          "name": "",
          "type": "address"
        },
        {
          "internalType": "uint256",
          "name": "",
          "type": "uint256"
        },
        {
          "internalType": "bool",
          "name": "",
          "type": "bool"
        },
        {
          "internalType": "uint256",
          "name": "",
          "type": "uint256"
        },
        {
          "internalType": "uint256",
          "name": "",
          "type": "uint256"
        }
      ],
      "stateMutability": "view",
      "type": "function"
    },
    {
      "inputs": [
        {
          "internalType": "uint256",
          "name": "index",
          "type": "uint256"
        }
      ],
      "name": "get_trade",
      "outputs": [
        {
          "internalType": "address",
          "name": "",
          "type": "address"
        },
        {
          "internalType": "uint256",
          "name": "",
          "type": "uint256"
        },
        {
          "internalType": "address",
          "name": "",
          "type": "address"
        },
        {
          "internalType": "address",
          "name": "",
          "type": "address"
        },
        {
          "internalType": "uint256",
          "name": "",
          "type": "uint256"
        },
        {
          "internalType": "address",
          "name": "",
          "type": "address"
        }
      ],
      "stateMutability": "view",
      "type": "function"
    },
    {
      "inputs": [],
      "name": "get_trade_size",
      "outputs": [
        {
          "internalType": "uint256",
          "name": "",
          "type": "uint256"
        }
      ],
      "stateMutability": "view",
      "type": "function"
    },
    {
      "inputs": [
        {
          "internalType": "bool",
          "name": "is_buy",
          "type": "bool"
        },
        {
          "internalType": "uint256",
          "name": "size",
          "type": "uint256"
        },
        {
          "internalType": "uint256",
          "name": "price",
          "type": "uint256"
        }
      ],
      "name": "place_limit_order",
      "outputs": [
        {
          "internalType": "uint256",
          "name": "",
          "type": "uint256"
        }
      ],
      "stateMutability": "nonpayable",
      "type": "function"
    },
    {
      "inputs": [
        {
          "internalType": "bool",
          "name": "is_buy",
          "type": "bool"
        },
        {
          "internalType": "uint256",
          "name": "size",
          "type": "uint256"
        }
      ],
      "name": "place_market_order",
      "outputs": [
        {
          "internalType": "uint256",
          "name": "",
          "type": "uint256"
        }
      ],
      "stateMutability": "nonpayable",
      "type": "function"
    },
    {
      "inputs": [],
      "name": "print_clob",
      "outputs": [],
      "stateMutability": "view",
      "type": "function"
    },
    {
      "inputs": [
        {
          "internalType": "address",
          "name": "participant",
          "type": "address"
        }
      ],
      "name": "remove_participant",
      "outputs": [],
      "stateMutability": "nonpayable",
      "type": "function"
    },
    {
      "inputs": [
        {
          "internalType": "uint256",
          "name": "price",
          "type": "uint256"
        }
      ],
      "name": "sell_order_ids",
      "outputs": [
        {
          "internalType": "uint256[]",
          "name": "",
          "type": "uint256[]"
        }
      ],
      "stateMutability": "view",
      "type": "function"
    },
    {
      "inputs": [
        {
          "internalType": "uint256",
          "name": "price",
          "type": "uint256"
        }
      ],
      "name": "sell_orders",
      "outputs": [
        {
          "components": [
            {
              "internalType": "address",
              "name": "owner",
              "type": "address"
            },
            {
              "internalType": "uint256",
              "name": "id",
              "type": "uint256"
            },
            {
              "internalType": "bool",
              "name": "is_buy",
              "type": "bool"
            },
            {
              "internalType": "uint256",
              "name": "size",
              "type": "uint256"
            },
            {
              "internalType": "uint256",
              "name": "price",
              "type": "uint256"
            }
          ],
          "internalType": "struct Order[]",
          "name": "",
          "type": "tuple[]"
        }
      ],
      "stateMutability": "view",
      "type": "function"
    },
    {
      "inputs": [],
      "name": "sell_prices",
      "outputs": [
        {
          "internalType": "uint256[]",
          "name": "",
          "type": "uint256[]"
        }
      ],
      "stateMutability": "view",
      "type": "function"
    },
    {
      "inputs": [],
      "name": "stop_trading",
      "outputs": [],
      "stateMutability": "nonpayable",
      "type": "function"
    },
    {
      "inputs": [
        {
          "internalType": "uint256",
          "name": "price",
          "type": "uint256"
        },
        {
          "internalType": "bool",
          "name": "is_buy",
          "type": "bool"
        }
      ],
      "name": "test_add_price",
      "outputs": [],
      "stateMutability": "nonpayable",
      "type": "function"
    },
    {
      "stateMutability": "payable",
      "type": "receive"
    }
  ],
  "bytecode": "0x60806040526001600060146101000a81548160ff02191690831515021790555060016002553480156200003157600080fd5b5060405162005925380380620059258339818101604052810190620000579190620001fe565b336000806101000a81548173ffffffffffffffffffffffffffffffffffffffff021916908373ffffffffffffffffffffffffffffffffffffffff16021790555081600a60006101000a81548173ffffffffffffffffffffffffffffffffffffffff021916908373ffffffffffffffffffffffffffffffffffffffff160217905550600a60009054906101000a900473ffffffffffffffffffffffffffffffffffffffff16600b60006101000a81548173ffffffffffffffffffffffffffffffffffffffff021916908373ffffffffffffffffffffffffffffffffffffffff16021790555080600c60006101000a81548173ffffffffffffffffffffffffffffffffffffffff021916908373ffffffffffffffffffffffffffffffffffffffff160217905550600c60009054906101000a900473ffffffffffffffffffffffffffffffffffffffff16600d60006101000a81548173ffffffffffffffffffffffffffffffffffffffff021916908373ffffffffffffffffffffffffffffffffffffffff16021790555050506200028d565b600081519050620001f88162000273565b92915050565b600080604083850312156200021257600080fd5b60006200022285828601620001e7565b92505060206200023585828601620001e7565b9150509250929050565b60006200024c8262000253565b9050919050565b600073ffffffffffffffffffffffffffffffffffffffff82169050919050565b6200027e816200023f565b81146200028a57600080fd5b50565b615688806200029d6000396000f3fe60806040526004361061012e5760003560e01c806397994107116100ab578063c39650bd1161006f578063c39650bd14610505578063c72346001461052e578063d130525214610545578063de2741611461056e578063f0ac025014610585578063f7bb9aac146105c2576101fa565b8063979941071461040c578063ac92dbf214610449578063b66ad02b14610472578063bdaca73c1461049d578063c10927c2146104da576101fa565b80634f758488116100f25780634f758488146102e8578063557ab989146103255780635fcb317c14610350578063916a250c1461038d57806396912974146103ca576101fa565b806315e96ab7146101ff578063160b08901461023c578063174d7023146102535780632efc65d41461029457806335a1f4ed146102ab576101fa565b366101fa57600160003373ffffffffffffffffffffffffffffffffffffffff1673ffffffffffffffffffffffffffffffffffffffff16815260200190815260200160002060009054906101000a900460ff166101bf576040517f08c379a00000000000000000000000000000000000000000000000000000000081526004016101b690614f42565b60405180910390fd5b7f9487f004efd5b1c61d445fef51ea041e80ce3afe8c4c7853f833eaaba68fd03633346040516101f0929190614d26565b60405180910390a1005b600080fd5b34801561020b57600080fd5b506102266004803603810190610221919061475a565b6105ed565b6040516102339190614e03565b60405180910390f35b34801561024857600080fd5b506102516107e9565b005b34801561025f57600080fd5b5061027a6004803603810190610275919061475a565b61088a565b60405161028b959493929190614db0565b60405180910390f35b3480156102a057600080fd5b506102a9610902565b005b3480156102b757600080fd5b506102d260048036038101906102cd919061475a565b6109a2565b6040516102df9190614e03565b60405180910390f35b3480156102f457600080fd5b5061030f600480360381019061030a919061470b565b610b9e565b60405161031c919061508c565b60405180910390f35b34801561033157600080fd5b5061033a610cc0565b604051610347919061508c565b60405180910390f35b34801561035c57600080fd5b506103776004803603810190610372919061475a565b610ccd565b6040516103849190615002565b60405180910390f35b34801561039957600080fd5b506103b460048036038101906103af919061475a565b610d89565b6040516103c19190614e25565b60405180910390f35b3480156103d657600080fd5b506103f160048036038101906103ec919061475a565b610df4565b60405161040396959493929190614d4f565b60405180910390f35b34801561041857600080fd5b50610433600480360381019061042e91906146cf565b610f0e565b604051610440919061508c565b60405180910390f35b34801561045557600080fd5b50610470600480360381019061046b91906147ac565b61130c565b005b34801561047e57600080fd5b5061048761131a565b6040516104949190614e25565b60405180910390f35b3480156104a957600080fd5b506104c460048036038101906104bf919061475a565b611372565b6040516104d19190614e47565b60405180910390f35b3480156104e657600080fd5b506104ef61191c565b6040516104fc919061508c565b60405180910390f35b34801561051157600080fd5b5061052c6004803603810190610527919061467d565b611926565b005b34801561053a57600080fd5b50610543611a0f565b005b34801561055157600080fd5b5061056c6004803603810190610567919061467d565b611c5b565b005b34801561057a57600080fd5b50610583611d3c565b005b34801561059157600080fd5b506105ac60048036038101906105a7919061475a565b611dca565b6040516105b99190614e25565b60405180910390f35b3480156105ce57600080fd5b506105d7611e35565b6040516105e49190614e25565b60405180910390f35b606060006004600084815260200190815260200160002090506000818054905067ffffffffffffffff81111561064c577f4e487b7100000000000000000000000000000000000000000000000000000000600052604160045260246000fd5b60405190808252806020026020018201604052801561068557816020015b610672614542565b81526020019060019003908161066a5790505b50905060005b82805490508110156107de57600360008483815481106106d4577f4e487b7100000000000000000000000000000000000000000000000000000000600052603260045260246000fd5b906000526020600020015481526020019081526020016000206040518060a00160405290816000820160009054906101000a900473ffffffffffffffffffffffffffffffffffffffff1673ffffffffffffffffffffffffffffffffffffffff1673ffffffffffffffffffffffffffffffffffffffff168152602001600182015481526020016002820160009054906101000a900460ff16151515158152602001600382015481526020016004820154815250508282815181106107c0577f4e487b7100000000000000000000000000000000000000000000000000000000600052603260045260246000fd5b602002602001018190525080806107d6906152db565b91505061068b565b508092505050919050565b60008054906101000a900473ffffffffffffffffffffffffffffffffffffffff1673ffffffffffffffffffffffffffffffffffffffff163373ffffffffffffffffffffffffffffffffffffffff161461084157600080fd5b6001600060146101000a81548160ff0219169083151502179055507fcaee25ed652f7de3eda27d06b8cdad8c0b75d4434d32132fc4fdeeed0200107760405160405180910390a1565b6000806000806000806003600088815260200190815260200160002090508060000160009054906101000a900473ffffffffffffffffffffffffffffffffffffffff1681600101548260020160009054906101000a900460ff1683600401548460030154955095509550955095505091939590929450565b60008054906101000a900473ffffffffffffffffffffffffffffffffffffffff1673ffffffffffffffffffffffffffffffffffffffff163373ffffffffffffffffffffffffffffffffffffffff161461095a57600080fd5b60008060146101000a81548160ff0219169083151502179055507fa2e85f0a9f88677f3b0cbb59e20653d40901cbe82066aff22044b134e3a5a3ae60405160405180910390a1565b606060006006600084815260200190815260200160002090506000818054905067ffffffffffffffff811115610a01577f4e487b7100000000000000000000000000000000000000000000000000000000600052604160045260246000fd5b604051908082528060200260200182016040528015610a3a57816020015b610a27614542565b815260200190600190039081610a1f5790505b50905060005b8280549050811015610b935760036000848381548110610a89577f4e487b7100000000000000000000000000000000000000000000000000000000600052603260045260246000fd5b906000526020600020015481526020019081526020016000206040518060a00160405290816000820160009054906101000a900473ffffffffffffffffffffffffffffffffffffffff1673ffffffffffffffffffffffffffffffffffffffff1673ffffffffffffffffffffffffffffffffffffffff168152602001600182015481526020016002820160009054906101000a900460ff1615151515815260200160038201548152602001600482015481525050828281518110610b75577f4e487b7100000000000000000000000000000000000000000000000000000000600052603260045260246000fd5b60200260200101819052508080610b8b906152db565b915050610a40565b508092505050919050565b60008060149054906101000a900460ff16610bee576040517f08c379a0000000000000000000000000000000000000000000000000000000008152600401610be590614fe2565b60405180910390fd5b600160003373ffffffffffffffffffffffffffffffffffffffff1673ffffffffffffffffffffffffffffffffffffffff16815260200190815260200160002060009054906101000a900460ff16610c7a576040517f08c379a0000000000000000000000000000000000000000000000000000000008152600401610c7190614f42565b60405180910390fd5b610c85828486611e8d565b60006002549050610c9881868686611fc9565b6001600254610ca7919061512a565b600281905550610cb56120f0565b809150509392505050565b6000600980549050905090565b610cd5614542565b600360008381526020019081526020016000206040518060a00160405290816000820160009054906101000a900473ffffffffffffffffffffffffffffffffffffffff1673ffffffffffffffffffffffffffffffffffffffff1673ffffffffffffffffffffffffffffffffffffffff168152602001600182015481526020016002820160009054906101000a900460ff16151515158152602001600382015481526020016004820154815250509050919050565b606060046000838152602001908152602001600020805480602002602001604051908101604052809291908181526020018280548015610de857602002820191906000526020600020905b815481526020019060010190808311610dd4575b50505050509050919050565b6000806000806000806009805490508710610e0e57600080fd5b600060098881548110610e4a577f4e487b7100000000000000000000000000000000000000000000000000000000600052603260045260246000fd5b906000526020600020906006020190508060000160009054906101000a900473ffffffffffffffffffffffffffffffffffffffff1681600101548260020160009054906101000a900473ffffffffffffffffffffffffffffffffffffffff168360030160009054906101000a900473ffffffffffffffffffffffffffffffffffffffff1684600401548560050160009054906101000a900473ffffffffffffffffffffffffffffffffffffffff169650965096509650965096505091939550919395565b60008060149054906101000a900460ff16610f5e576040517f08c379a0000000000000000000000000000000000000000000000000000000008152600401610f5590614fe2565b60405180910390fd5b600160003373ffffffffffffffffffffffffffffffffffffffff1673ffffffffffffffffffffffffffffffffffffffff16815260200190815260200160002060009054906101000a900460ff16610fea576040517f08c379a0000000000000000000000000000000000000000000000000000000008152600401610fe190614f42565b60405180910390fd5b60086000610ff89190614589565b600061100484156122e8565b905060006110128515612303565b90506000805b83805490508110156111ad576000836000868481548110611062577f4e487b7100000000000000000000000000000000000000000000000000000000600052603260045260246000fd5b9060005260206000200154815260200190815260200160002090506000805b828054905081101561118a576000600360008584815481106110cc577f4e487b7100000000000000000000000000000000000000000000000000000000600052603260045260246000fd5b9060005260206000200154815260200190815260200160002090508060030154866110f7919061512a565b95506008848381548110611134577f4e487b7100000000000000000000000000000000000000000000000000000000600052603260045260246000fd5b9060005260206000200154908060018154018082558091505060019003906000526020600020016000909190919091505589861061117657600192505061118a565b508080611182906152db565b915050611081565b5080156111985750506111ad565b505080806111a5906152db565b915050611018565b506000600880549050116111f6576040517f08c379a00000000000000000000000000000000000000000000000000000000081526004016111ed90614f02565b60405180910390fd5b6000600254905060006040518060a001604052803373ffffffffffffffffffffffffffffffffffffffff168152602001838152602001891515815260200188815260200160008152509050806003600084815260200190815260200160002060008201518160000160006101000a81548173ffffffffffffffffffffffffffffffffffffffff021916908373ffffffffffffffffffffffffffffffffffffffff1602179055506020820151816001015560408201518160020160006101000a81548160ff021916908315150217905550606082015181600301556080820151816004015590505060016002546112ec919061512a565b6002819055506112fe8260088a61231e565b819550505050505092915050565b6113168282612cd2565b5050565b6060600580548060200260200160405190810160405280929190818152602001828054801561136857602002820191906000526020600020905b815481526020019060010190808311611354575b5050505050905090565b60008060149054906101000a900460ff166113c2576040517f08c379a00000000000000000000000000000000000000000000000000000000081526004016113b990614fe2565b60405180910390fd5b600160003373ffffffffffffffffffffffffffffffffffffffff1673ffffffffffffffffffffffffffffffffffffffff16815260200190815260200160002060009054906101000a900460ff1661144e576040517f08c379a000000000000000000000000000000000000000000000000000000000815260040161144590614f42565b60405180910390fd5b3373ffffffffffffffffffffffffffffffffffffffff166003600084815260200190815260200160002060000160009054906101000a900473ffffffffffffffffffffffffffffffffffffffff1673ffffffffffffffffffffffffffffffffffffffff16146114f2576040517f08c379a00000000000000000000000000000000000000000000000000000000081526004016114e990614f82565b60405180910390fd5b6000805b6005805490508110156116555760006005828154811061153f577f4e487b7100000000000000000000000000000000000000000000000000000000600052603260045260246000fd5b90600052602060002001549050600060046000838152602001908152602001600020905060005b818054905081101561163257868282815481106115ac577f4e487b7100000000000000000000000000000000000000000000000000000000600052603260045260246000fd5b9060005260206000200154141561161f57600460008481526020019081526020016000208181548110611608577f4e487b7100000000000000000000000000000000000000000000000000000000600052603260045260246000fd5b906000526020600020016000905560019450611632565b808061162a906152db565b915050611566565b508315611640575050611655565b5050808061164d906152db565b9150506114f6565b5080156116fd5760036000848152602001908152602001600020600080820160006101000a81549073ffffffffffffffffffffffffffffffffffffffff021916905560018201600090556002820160006101000a81549060ff02191690556003820160009055600482016000905550507f2d92940e7cb154d8be4518d86f2d0a288d4978c16f4f4064f075c4c345ce4062836040516116f4919061508c565b60405180910390a15b6000905060005b6007805490508110156118635760006007828154811061174d577f4e487b7100000000000000000000000000000000000000000000000000000000600052603260045260246000fd5b90600052602060002001549050600060046000838152602001908152602001600020905060005b818054905081101561184057868282815481106117ba577f4e487b7100000000000000000000000000000000000000000000000000000000600052603260045260246000fd5b9060005260206000200154141561182d57600660008481526020019081526020016000208181548110611816577f4e487b7100000000000000000000000000000000000000000000000000000000600052603260045260246000fd5b906000526020600020016000905560019450611840565b8080611838906152db565b915050611774565b50831561184e575050611863565b5050808061185b906152db565b915050611704565b50801561190b5760036000848152602001908152602001600020600080820160006101000a81549073ffffffffffffffffffffffffffffffffffffffff021916905560018201600090556002820160006101000a81549060ff02191690556003820160009055600482016000905550507f2d92940e7cb154d8be4518d86f2d0a288d4978c16f4f4064f075c4c345ce406283604051611902919061508c565b60405180910390a15b6119136120f0565b80915050919050565b6000600254905090565b60008054906101000a900473ffffffffffffffffffffffffffffffffffffffff1673ffffffffffffffffffffffffffffffffffffffff163373ffffffffffffffffffffffffffffffffffffffff161461197e57600080fd5b60018060008373ffffffffffffffffffffffffffffffffffffffff1673ffffffffffffffffffffffffffffffffffffffff16815260200190815260200160002060006101000a81548160ff0219169083151502179055507fcbfdb4d668880620c7cddca846a22a6ab99471a25a6a522fa18825a523cbbb0f81604051611a049190614c66565b60405180910390a150565b60005b600580549050811015611b335760006004600060058481548110611a5f577f4e487b7100000000000000000000000000000000000000000000000000000000600052603260045260246000fd5b906000526020600020015481526020019081526020016000209050600081805490501115611b1f5760005b8180549050811015611b1d57600060036000848481548110611ad5577f4e487b7100000000000000000000000000000000000000000000000000000000600052603260045260246000fd5b90600052602060002001548152602001908152602001600020905060008160040154118015611b08575060008160030154115b50508080611b15906152db565b915050611a8a565b505b508080611b2b906152db565b915050611a12565b5060005b600780549050811015611c585760006006600060078481548110611b84577f4e487b7100000000000000000000000000000000000000000000000000000000600052603260045260246000fd5b906000526020600020015481526020019081526020016000209050600081805490501115611c445760005b8180549050811015611c4257600060036000848481548110611bfa577f4e487b7100000000000000000000000000000000000000000000000000000000600052603260045260246000fd5b90600052602060002001548152602001908152602001600020905060008160040154118015611c2d575060008160030154115b50508080611c3a906152db565b915050611baf565b505b508080611c50906152db565b915050611b37565b50565b60008054906101000a900473ffffffffffffffffffffffffffffffffffffffff1673ffffffffffffffffffffffffffffffffffffffff163373ffffffffffffffffffffffffffffffffffffffff1614611cb357600080fd5b600160008273ffffffffffffffffffffffffffffffffffffffff1673ffffffffffffffffffffffffffffffffffffffff16815260200190815260200160002060006101000a81549060ff02191690557f8a4e1fd7f96382ae7a40bd1a9e48e99015ee199725d45fffeaa35bcd797c581381604051611d319190614c66565b60405180910390a150565b600160003373ffffffffffffffffffffffffffffffffffffffff1673ffffffffffffffffffffffffffffffffffffffff16815260200190815260200160002060009054906101000a900460ff16611dc8576040517f08c379a0000000000000000000000000000000000000000000000000000000008152600401611dbf90614f42565b60405180910390fd5b565b606060066000838152602001908152602001600020805480602002602001604051908101604052809291908181526020018280548015611e2957602002820191906000526020600020905b815481526020019060010190808311611e15575b50505050509050919050565b60606007805480602002602001604051908101604052809291908181526020018280548015611e8357602002820191906000526020600020905b815481526020019060010190808311611e6f575b5050505050905090565b60008311611ed0576040517f08c379a0000000000000000000000000000000000000000000000000000000008152600401611ec790614e82565b60405180910390fd5b60008211611f13576040517f08c379a0000000000000000000000000000000000000000000000000000000008152600401611f0a90614fc2565b60405180910390fd5b6000611f1f82156130bf565b90506000811415611f305750611fc4565b8115611f7e5780841115611f79576040517f08c379a0000000000000000000000000000000000000000000000000000000008152600401611f7090614f62565b60405180910390fd5b611fc2565b80841015611fc1576040517f08c379a0000000000000000000000000000000000000000000000000000000008152600401611fb890614e62565b60405180910390fd5b5b505b505050565b60006040518060a001604052803373ffffffffffffffffffffffffffffffffffffffff1681526020018681526020018515158152602001848152602001838152509050806003600087815260200190815260200160002060008201518160000160006101000a81548173ffffffffffffffffffffffffffffffffffffffff021916908373ffffffffffffffffffffffffffffffffffffffff1602179055506020820151816001015560408201518160020160006101000a81548160ff02191690831515021790555060608201518160030155608082015181600401559050507f7fb60ca588554fe8c8614af1f6e0d4355a042d32e4971fcde469152f8201f21a816040516120d79190615002565b60405180910390a16120e98585613195565b5050505050565b60005b6005805490508110156121ea5760006005828154811061213c577f4e487b7100000000000000000000000000000000000000000000000000000000600052603260045260246000fd5b9060005260206000200154905060006004600083815260200190815260200160002090506000818054905014156121d55760046000838152602001908152602001600020600061218c9190614589565b600583815481106121c6577f4e487b7100000000000000000000000000000000000000000000000000000000600052603260045260246000fd5b90600052602060002001600090555b505080806121e2906152db565b9150506120f3565b5060005b6007805490508110156122e557600060078281548110612237577f4e487b7100000000000000000000000000000000000000000000000000000000600052603260045260246000fd5b9060005260206000200154905060006006600083815260200190815260200160002090506000818054905014156122d0576006600083815260200190815260200160002060006122879190614589565b600783815481106122c1577f4e487b7100000000000000000000000000000000000000000000000000000000600052603260045260246000fd5b90600052602060002001600090555b505080806122dd906152db565b9150506121ee565b50565b600081156122f957600590506122fe565b600790505b919050565b600081156123145760049050612319565b600690505b919050565b600060036000858152602001908152602001600020905060008160030154905060005b8480549050811080156123545750600082115b15612c9a57600060036000878481548110612398577f4e487b7100000000000000000000000000000000000000000000000000000000600052603260045260246000fd5b90600052602060002001548152602001908152602001600020905060006124078560000160009054906101000a900473ffffffffffffffffffffffffffffffffffffffff168360000160009054906101000a900473ffffffffffffffffffffffffffffffffffffffff16613334565b905080612449576040517f08c379a000000000000000000000000000000000000000000000000000000000815260040161244090614ee2565b60405180910390fd5b8160030154841061281e57600082905060006040518060a001604052808860000160009054906101000a900473ffffffffffffffffffffffffffffffffffffffff1673ffffffffffffffffffffffffffffffffffffffff168152602001886001015481526020018860020160009054906101000a900460ff161515815260200185600301548152602001886004015481525090507f762bd5f65f9e50083a6c37d5da0f96b3e08822eafe82cfc540819024b64046f4828260405161250e929190615062565b60405180910390a160096040518060c001604052808960000160009054906101000a900473ffffffffffffffffffffffffffffffffffffffff1673ffffffffffffffffffffffffffffffffffffffff16815260200186600301548152602001600a60009054906101000a900473ffffffffffffffffffffffffffffffffffffffff1673ffffffffffffffffffffffffffffffffffffffff1681526020018660000160009054906101000a900473ffffffffffffffffffffffffffffffffffffffff1673ffffffffffffffffffffffffffffffffffffffff168152602001896004015487600301546125ff9190615180565b8152602001600c60009054906101000a900473ffffffffffffffffffffffffffffffffffffffff1673ffffffffffffffffffffffffffffffffffffffff16815250908060018154018082558091505060019003906000526020600020906006020160009091909190915060008201518160000160006101000a81548173ffffffffffffffffffffffffffffffffffffffff021916908373ffffffffffffffffffffffffffffffffffffffff1602179055506020820151816001015560408201518160020160006101000a81548173ffffffffffffffffffffffffffffffffffffffff021916908373ffffffffffffffffffffffffffffffffffffffff16021790555060608201518160030160006101000a81548173ffffffffffffffffffffffffffffffffffffffff021916908373ffffffffffffffffffffffffffffffffffffffff1602179055506080820151816004015560a08201518160050160006101000a81548173ffffffffffffffffffffffffffffffffffffffff021916908373ffffffffffffffffffffffffffffffffffffffff16021790555050506127f88460000160009054906101000a900473ffffffffffffffffffffffffffffffffffffffff168860000160009054906101000a900473ffffffffffffffffffffffffffffffffffffffff1686600301548a600401548c61336e565b61280584600101546140f9565b83600301548661281591906151da565b95505050612c85565b60006040518060a001604052808460000160009054906101000a900473ffffffffffffffffffffffffffffffffffffffff1673ffffffffffffffffffffffffffffffffffffffff168152602001846001015481526020018460020160009054906101000a900460ff16151581526020018681526020018460040154815250905060006040518060a001604052808860000160009054906101000a900473ffffffffffffffffffffffffffffffffffffffff1673ffffffffffffffffffffffffffffffffffffffff168152602001886001015481526020018860020160009054906101000a900460ff1615158152602001878152602001886004015481525090507f762bd5f65f9e50083a6c37d5da0f96b3e08822eafe82cfc540819024b64046f4828260405161294f92919061501d565b60405180910390a16129b48460000160009054906101000a900473ffffffffffffffffffffffffffffffffffffffff168860000160009054906101000a900473ffffffffffffffffffffffffffffffffffffffff1686600301548a600401548c61336e565b60096040518060c001604052808960000160009054906101000a900473ffffffffffffffffffffffffffffffffffffffff1673ffffffffffffffffffffffffffffffffffffffff16815260200189600401548760030154612a159190615180565b8152602001600a60009054906101000a900473ffffffffffffffffffffffffffffffffffffffff1673ffffffffffffffffffffffffffffffffffffffff1681526020018660000160009054906101000a900473ffffffffffffffffffffffffffffffffffffffff1673ffffffffffffffffffffffffffffffffffffffff16815260200186600301548152602001600c60009054906101000a900473ffffffffffffffffffffffffffffffffffffffff1673ffffffffffffffffffffffffffffffffffffffff16815250908060018154018082558091505060019003906000526020600020906006020160009091909190915060008201518160000160006101000a81548173ffffffffffffffffffffffffffffffffffffffff021916908373ffffffffffffffffffffffffffffffffffffffff1602179055506020820151816001015560408201518160020160006101000a81548173ffffffffffffffffffffffffffffffffffffffff021916908373ffffffffffffffffffffffffffffffffffffffff16021790555060608201518160030160006101000a81548173ffffffffffffffffffffffffffffffffffffffff021916908373ffffffffffffffffffffffffffffffffffffffff1602179055506080820151816004015560a08201518160050160006101000a81548173ffffffffffffffffffffffffffffffffffffffff021916908373ffffffffffffffffffffffffffffffffffffffff1602179055505050612c4684600101546140f9565b60009550612c8284600101548560020160009054906101000a900460ff1684606001518760030154612c7891906151da565b8760040154611fc9565b50505b50508080612c92906152db565b915050612341565b506000811115612cca57612cc48260020160009054906101000a900460ff16828460040154610b9e565b50612ccb565b5b5050505050565b6000612cdd826122e8565b905060008060005b8380549050811015612e1157838181548110612d2a577f4e487b7100000000000000000000000000000000000000000000000000000000600052603260045260246000fd5b9060005260206000200154861415612d4557505050506130bb565b84612da657838181548110612d83577f4e487b7100000000000000000000000000000000000000000000000000000000600052603260045260246000fd5b9060005260206000200154861015612da15780925060019150612e11565b612dfe565b838181548110612ddf577f4e487b7100000000000000000000000000000000000000000000000000000000600052603260045260246000fd5b9060005260206000200154861115612dfd5780925060019150612e11565b5b8080612e09906152db565b915050612ce5565b5080612e4457828590806001815401808255809150506001900390600052602060002001600090919091909150556130b7565b600060018480549050612e57919061512a565b67ffffffffffffffff811115612e96577f4e487b7100000000000000000000000000000000000000000000000000000000600052604160045260246000fd5b604051908082528060200260200182016040528015612ec45781602001602082028036833780820191505090505b50905060005b83811015612f6e57848181548110612f0b577f4e487b7100000000000000000000000000000000000000000000000000000000600052603260045260246000fd5b9060005260206000200154828281518110612f4f577f4e487b7100000000000000000000000000000000000000000000000000000000600052603260045260246000fd5b6020026020010181815250508080612f66906152db565b915050612eca565b5085818481518110612fa9577f4e487b7100000000000000000000000000000000000000000000000000000000600052603260045260246000fd5b6020026020010181815250506000600184612fc4919061512a565b90505b8480549050811161307a5784600182612fe091906151da565b81548110613017577f4e487b7100000000000000000000000000000000000000000000000000000000600052603260045260246000fd5b906000526020600020015482828151811061305b577f4e487b7100000000000000000000000000000000000000000000000000000000600052603260045260246000fd5b6020026020010181815250508080613072906152db565b915050612fc7565b50841561309d5780600590805190602001906130979291906145aa565b506130b5565b80600790805190602001906130b39291906145aa565b505b505b5050505b5050565b600080600090508280156130d857506000600580549050115b1561312a576005600081548110613118577f4e487b7100000000000000000000000000000000000000000000000000000000600052603260045260246000fd5b9060005260206000200154905061318c565b8215801561313d57506000600780549050115b1561318b57600760008154811061317d577f4e487b7100000000000000000000000000000000000000000000000000000000600052603260045260246000fd5b906000526020600020015490505b5b80915050919050565b600060036000848152602001908152602001600020905060006131b783612303565b905060006131c58415612303565b9050600083600401549050600082600083815260200190815260200160002080549050905060006131f687156130bf565b905060008214156132805761320b8388612cd2565b8460008481526020019081526020016000208890806001815401808255809150506001900390600052602060002001600090919091909150557f62fbbcee738136be15d11ac93ddb793e8a1d951655ae8fea61c10eb5ec93fe5a866040516132739190615047565b60405180910390a161332a565b808314613306576132918388612cd2565b8460008481526020019081526020016000208890806001815401808255809150506001900390600052602060002001600090919091909150557f62fbbcee738136be15d11ac93ddb793e8a1d951655ae8fea61c10eb5ec93fe5a866040516132f99190615047565b60405180910390a1613329565b6000846000858152602001908152602001600020905061332789828a61231e565b505b5b5050505050505050565b60008173ffffffffffffffffffffffffffffffffffffffff168373ffffffffffffffffffffffffffffffffffffffff161415905092915050565b8015613a3557600082846133829190615180565b90507f2832f321ce118983ef94f5ca0358c62819d334f6a02f7c3dc99add97b70883488587600a60009054906101000a900473ffffffffffffffffffffffffffffffffffffffff16876040516133db9493929190614caa565b60405180910390a17f2832f321ce118983ef94f5ca0358c62819d334f6a02f7c3dc99add97b70883488686600c60009054906101000a900473ffffffffffffffffffffffffffffffffffffffff168460405161343a9493929190614caa565b60405180910390a160096040518060c001604052808773ffffffffffffffffffffffffffffffffffffffff168152602001868152602001600a60009054906101000a900473ffffffffffffffffffffffffffffffffffffffff1673ffffffffffffffffffffffffffffffffffffffff1681526020018873ffffffffffffffffffffffffffffffffffffffff168152602001838152602001600c60009054906101000a900473ffffffffffffffffffffffffffffffffffffffff1673ffffffffffffffffffffffffffffffffffffffff16815250908060018154018082558091505060019003906000526020600020906006020160009091909190915060008201518160000160006101000a81548173ffffffffffffffffffffffffffffffffffffffff021916908373ffffffffffffffffffffffffffffffffffffffff1602179055506020820151816001015560408201518160020160006101000a81548173ffffffffffffffffffffffffffffffffffffffff021916908373ffffffffffffffffffffffffffffffffffffffff16021790555060608201518160030160006101000a81548173ffffffffffffffffffffffffffffffffffffffff021916908373ffffffffffffffffffffffffffffffffffffffff1602179055506080820151816004015560a08201518160050160006101000a81548173ffffffffffffffffffffffffffffffffffffffff021916908373ffffffffffffffffffffffffffffffffffffffff160217905550505083600b60009054906101000a900473ffffffffffffffffffffffffffffffffffffffff1673ffffffffffffffffffffffffffffffffffffffff1663dd62ed3e87306040518363ffffffff1660e01b81526004016136c6929190614c81565b60206040518083038186803b1580156136de57600080fd5b505afa1580156136f2573d6000803e3d6000fd5b505050506040513d601f19601f820116820180604052508101906137169190614783565b1015613757576040517f08c379a000000000000000000000000000000000000000000000000000000000815260040161374e90614fa2565b60405180910390fd5b80600b60009054906101000a900473ffffffffffffffffffffffffffffffffffffffff1673ffffffffffffffffffffffffffffffffffffffff1663dd62ed3e88306040518363ffffffff1660e01b81526004016137b5929190614c81565b60206040518083038186803b1580156137cd57600080fd5b505afa1580156137e1573d6000803e3d6000fd5b505050506040513d601f19601f820116820180604052508101906138059190614783565b1015613846576040517f08c379a000000000000000000000000000000000000000000000000000000000815260040161383d90614fa2565b60405180910390fd5b6000600b60009054906101000a900473ffffffffffffffffffffffffffffffffffffffff1673ffffffffffffffffffffffffffffffffffffffff166323b872dd8789886040518463ffffffff1660e01b81526004016138a793929190614cef565b602060405180830381600087803b1580156138c157600080fd5b505af11580156138d5573d6000803e3d6000fd5b505050506040513d601f19601f820116820180604052508101906138f991906146a6565b90508061393b576040517f08c379a000000000000000000000000000000000000000000000000000000000815260040161393290614ec2565b60405180910390fd5b600d60009054906101000a900473ffffffffffffffffffffffffffffffffffffffff1673ffffffffffffffffffffffffffffffffffffffff166323b872dd8888856040518463ffffffff1660e01b815260040161399a93929190614cef565b602060405180830381600087803b1580156139b457600080fd5b505af11580156139c8573d6000803e3d6000fd5b505050506040513d601f19601f820116820180604052508101906139ec91906146a6565b905080613a2e576040517f08c379a0000000000000000000000000000000000000000000000000000000008152600401613a2590614f22565b60405180910390fd5b50506140f2565b60008284613a439190615180565b90507f2832f321ce118983ef94f5ca0358c62819d334f6a02f7c3dc99add97b70883488587600c60009054906101000a900473ffffffffffffffffffffffffffffffffffffffff1684604051613a9c9493929190614caa565b60405180910390a17f2832f321ce118983ef94f5ca0358c62819d334f6a02f7c3dc99add97b70883488686600a60009054906101000a900473ffffffffffffffffffffffffffffffffffffffff1687604051613afb9493929190614caa565b60405180910390a160096040518060c001604052808773ffffffffffffffffffffffffffffffffffffffff168152602001838152602001600c60009054906101000a900473ffffffffffffffffffffffffffffffffffffffff1673ffffffffffffffffffffffffffffffffffffffff1681526020018873ffffffffffffffffffffffffffffffffffffffff168152602001868152602001600a60009054906101000a900473ffffffffffffffffffffffffffffffffffffffff1673ffffffffffffffffffffffffffffffffffffffff16815250908060018154018082558091505060019003906000526020600020906006020160009091909190915060008201518160000160006101000a81548173ffffffffffffffffffffffffffffffffffffffff021916908373ffffffffffffffffffffffffffffffffffffffff1602179055506020820151816001015560408201518160020160006101000a81548173ffffffffffffffffffffffffffffffffffffffff021916908373ffffffffffffffffffffffffffffffffffffffff16021790555060608201518160030160006101000a81548173ffffffffffffffffffffffffffffffffffffffff021916908373ffffffffffffffffffffffffffffffffffffffff1602179055506080820151816004015560a08201518160050160006101000a81548173ffffffffffffffffffffffffffffffffffffffff021916908373ffffffffffffffffffffffffffffffffffffffff160217905550505080600d60009054906101000a900473ffffffffffffffffffffffffffffffffffffffff1673ffffffffffffffffffffffffffffffffffffffff1663dd62ed3e87306040518363ffffffff1660e01b8152600401613d87929190614c81565b60206040518083038186803b158015613d9f57600080fd5b505afa158015613db3573d6000803e3d6000fd5b505050506040513d601f19601f82011682018060405250810190613dd79190614783565b1015613e18576040517f08c379a0000000000000000000000000000000000000000000000000000000008152600401613e0f90614ea2565b60405180910390fd5b83600d60009054906101000a900473ffffffffffffffffffffffffffffffffffffffff1673ffffffffffffffffffffffffffffffffffffffff1663dd62ed3e88306040518363ffffffff1660e01b8152600401613e76929190614c81565b60206040518083038186803b158015613e8e57600080fd5b505afa158015613ea2573d6000803e3d6000fd5b505050506040513d601f19601f82011682018060405250810190613ec69190614783565b1015613f07576040517f08c379a0000000000000000000000000000000000000000000000000000000008152600401613efe90614ea2565b60405180910390fd5b6000600d60009054906101000a900473ffffffffffffffffffffffffffffffffffffffff1673ffffffffffffffffffffffffffffffffffffffff166323b872dd8789856040518463ffffffff1660e01b8152600401613f6893929190614cef565b602060405180830381600087803b158015613f8257600080fd5b505af1158015613f96573d6000803e3d6000fd5b505050506040513d601f19601f82011682018060405250810190613fba91906146a6565b905080613ffc576040517f08c379a0000000000000000000000000000000000000000000000000000000008152600401613ff390614ec2565b60405180910390fd5b600b60009054906101000a900473ffffffffffffffffffffffffffffffffffffffff1673ffffffffffffffffffffffffffffffffffffffff166323b872dd8888886040518463ffffffff1660e01b815260040161405b93929190614cef565b602060405180830381600087803b15801561407557600080fd5b505af1158015614089573d6000803e3d6000fd5b505050506040513d601f19601f820116820180604052508101906140ad91906146a6565b9050806140ef576040517f08c379a00000000000000000000000000000000000000000000000000000000081526004016140e690614f22565b60405180910390fd5b50505b5050505050565b60005b60058054905081101561431b57600060058281548110614145577f4e487b7100000000000000000000000000000000000000000000000000000000600052603260045260246000fd5b9060005260206000200154905060006004600083815260200190815260200160002090506000805b82805490508110156142f657858382815481106141b3577f4e487b7100000000000000000000000000000000000000000000000000000000600052603260045260246000fd5b906000526020600020015414156142e35760008590505b600184805490506141db91906151da565b81101561428c57836001826141f0919061512a565b81548110614227577f4e487b7100000000000000000000000000000000000000000000000000000000600052603260045260246000fd5b906000526020600020015484828154811061426b577f4e487b7100000000000000000000000000000000000000000000000000000000600052603260045260246000fd5b90600052602060002001819055508080614284906152db565b9150506141ca565b50828054806142c4577f4e487b7100000000000000000000000000000000000000000000000000000000600052603160045260246000fd5b60019003818190600052602060002001600090559055600191506142f6565b80806142ee906152db565b91505061416d565b5080156143055750505061431b565b5050508080614313906152db565b9150506140fc565b5060005b60078054905081101561453e57600060078281548110614368577f4e487b7100000000000000000000000000000000000000000000000000000000600052603260045260246000fd5b9060005260206000200154905060006006600083815260200190815260200160002090506000805b828054905081101561451957858382815481106143d6577f4e487b7100000000000000000000000000000000000000000000000000000000600052603260045260246000fd5b906000526020600020015414156145065760008590505b600184805490506143fe91906151da565b8110156144af5783600182614413919061512a565b8154811061444a577f4e487b7100000000000000000000000000000000000000000000000000000000600052603260045260246000fd5b906000526020600020015484828154811061448e577f4e487b7100000000000000000000000000000000000000000000000000000000600052603260045260246000fd5b906000526020600020018190555080806144a7906152db565b9150506143ed565b50828054806144e7577f4e487b7100000000000000000000000000000000000000000000000000000000600052603160045260246000fd5b6001900381819060005260206000200160009055905560019150614519565b8080614511906152db565b915050614390565b5080156145285750505061453e565b5050508080614536906152db565b91505061431f565b5050565b6040518060a00160405280600073ffffffffffffffffffffffffffffffffffffffff1681526020016000815260200160001515815260200160008152602001600081525090565b50805460008255906000526020600020908101906145a791906145f7565b50565b8280548282559060005260206000209081019282156145e6579160200282015b828111156145e55782518255916020019190600101906145ca565b5b5090506145f391906145f7565b5090565b5b808211156146105760008160009055506001016145f8565b5090565b6000813590506146238161560d565b92915050565b60008135905061463881615624565b92915050565b60008151905061464d81615624565b92915050565b6000813590506146628161563b565b92915050565b6000815190506146778161563b565b92915050565b60006020828403121561468f57600080fd5b600061469d84828501614614565b91505092915050565b6000602082840312156146b857600080fd5b60006146c68482850161463e565b91505092915050565b600080604083850312156146e257600080fd5b60006146f085828601614629565b925050602061470185828601614653565b9150509250929050565b60008060006060848603121561472057600080fd5b600061472e86828701614629565b935050602061473f86828701614653565b925050604061475086828701614653565b9150509250925092565b60006020828403121561476c57600080fd5b600061477a84828501614653565b91505092915050565b60006020828403121561479557600080fd5b60006147a384828501614668565b91505092915050565b600080604083850312156147bf57600080fd5b60006147cd85828601614653565b92505060206147de85828601614629565b9150509250929050565b60006147f48383614ad7565b60a08301905092915050565b600061480c8383614c48565b60208301905092915050565b61482181615245565b82525050565b61483081615245565b82525050565b6000614841826150c7565b61484b81856150f7565b9350614856836150a7565b8060005b8381101561488757815161486e88826147e8565b9750614879836150dd565b92505060018101905061485a565b5085935050505092915050565b600061489f826150d2565b6148a98185615108565b93506148b4836150b7565b8060005b838110156148e55781516148cc8882614800565b97506148d7836150ea565b9250506001810190506148b8565b5085935050505092915050565b6148fb81615257565b82525050565b61490a81615257565b82525050565b600061491d602383615119565b915061492882615360565b604082019050919050565b6000614940601183615119565b915061494b826153af565b602082019050919050565b6000614963602683615119565b915061496e826153d8565b604082019050919050565b6000614986601183615119565b915061499182615427565b602082019050919050565b60006149a9601883615119565b91506149b482615450565b602082019050919050565b60006149cc601783615119565b91506149d782615479565b602082019050919050565b60006149ef601183615119565b91506149fa826154a2565b602082019050919050565b6000614a12601a83615119565b9150614a1d826154cb565b602082019050919050565b6000614a35602383615119565b9150614a40826154f4565b604082019050919050565b6000614a58601f83615119565b9150614a6382615543565b602082019050919050565b6000614a7b602583615119565b9150614a868261556c565b604082019050919050565b6000614a9e601083615119565b9150614aa9826155bb565b602082019050919050565b6000614ac1601983615119565b9150614acc826155e4565b602082019050919050565b60a082016000820151614aed6000850182614818565b506020820151614b006020850182614c48565b506040820151614b1360408501826148f2565b506060820151614b266060850182614c48565b506080820151614b396080850182614c48565b50505050565b60a082016000820151614b556000850182614818565b506020820151614b686020850182614c48565b506040820151614b7b60408501826148f2565b506060820151614b8e6060850182614c48565b506080820151614ba16080850182614c48565b50505050565b60a082016000808301549050614bbc8161528d565b614bc96000860182614818565b5060018301549050614bda816152c1565b614be76020860182614c48565b5060028301549050614bf8816152a7565b614c0560408601826148f2565b5060038301549050614c16816152c1565b614c236060860182614c48565b5060048301549050614c34816152c1565b614c416080860182614c48565b5050505050565b614c5181615283565b82525050565b614c6081615283565b82525050565b6000602082019050614c7b6000830184614827565b92915050565b6000604082019050614c966000830185614827565b614ca36020830184614827565b9392505050565b6000608082019050614cbf6000830187614827565b614ccc6020830186614827565b614cd96040830185614827565b614ce66060830184614c57565b95945050505050565b6000606082019050614d046000830186614827565b614d116020830185614827565b614d1e6040830184614c57565b949350505050565b6000604082019050614d3b6000830185614827565b614d486020830184614c57565b9392505050565b600060c082019050614d646000830189614827565b614d716020830188614c57565b614d7e6040830187614827565b614d8b6060830186614827565b614d986080830185614c57565b614da560a0830184614827565b979650505050505050565b600060a082019050614dc56000830188614827565b614dd26020830187614c57565b614ddf6040830186614901565b614dec6060830185614c57565b614df96080830184614c57565b9695505050505050565b60006020820190508181036000830152614e1d8184614836565b905092915050565b60006020820190508181036000830152614e3f8184614894565b905092915050565b6000602082019050614e5c6000830184614901565b92915050565b60006020820190508181036000830152614e7b81614910565b9050919050565b60006020820190508181036000830152614e9b81614933565b9050919050565b60006020820190508181036000830152614ebb81614956565b9050919050565b60006020820190508181036000830152614edb81614979565b9050919050565b60006020820190508181036000830152614efb8161499c565b9050919050565b60006020820190508181036000830152614f1b816149bf565b9050919050565b60006020820190508181036000830152614f3b816149e2565b9050919050565b60006020820190508181036000830152614f5b81614a05565b9050919050565b60006020820190508181036000830152614f7b81614a28565b9050919050565b60006020820190508181036000830152614f9b81614a4b565b9050919050565b60006020820190508181036000830152614fbb81614a6e565b9050919050565b60006020820190508181036000830152614fdb81614a91565b9050919050565b60006020820190508181036000830152614ffb81614ab4565b9050919050565b600060a0820190506150176000830184614b3f565b92915050565b6000610140820190506150336000830185614b3f565b61504060a0830184614b3f565b9392505050565b600060a08201905061505c6000830184614ba7565b92915050565b6000610140820190506150786000830185614ba7565b61508560a0830184614b3f565b9392505050565b60006020820190506150a16000830184614c57565b92915050565b6000819050602082019050919050565b6000819050602082019050919050565b600081519050919050565b600081519050919050565b6000602082019050919050565b6000602082019050919050565b600082825260208201905092915050565b600082825260208201905092915050565b600082825260208201905092915050565b600061513582615283565b915061514083615283565b9250827fffffffffffffffffffffffffffffffffffffffffffffffffffffffffffffffff0382111561517557615174615324565b5b828201905092915050565b600061518b82615283565b915061519683615283565b9250817fffffffffffffffffffffffffffffffffffffffffffffffffffffffffffffffff04831182151516156151cf576151ce615324565b5b828202905092915050565b60006151e582615283565b91506151f083615283565b92508282101561520357615202615324565b5b828203905092915050565b600073ffffffffffffffffffffffffffffffffffffffff82169050919050565b600060ff82169050919050565b6000819050919050565b600061525082615263565b9050919050565b60008115159050919050565b600073ffffffffffffffffffffffffffffffffffffffff82169050919050565b6000819050919050565b60006152a061529b83615353565b61520e565b9050919050565b60006152ba6152b583615353565b61522e565b9050919050565b60006152d46152cf83615353565b61523b565b9050919050565b60006152e682615283565b91507fffffffffffffffffffffffffffffffffffffffffffffffffffffffffffffffff82141561531957615318615324565b5b600182019050919050565b7f4e487b7100000000000000000000000000000000000000000000000000000000600052601160045260246000fd5b60008160001c9050919050565b7f43726f737365642073656c6c207072696365203c20626573742062757920707260008201527f6963650000000000000000000000000000000000000000000000000000000000602082015250565b7f5072696365206d757374206265203e2030000000000000000000000000000000600082015250565b7f7b53656c6c7d204e6f7420656e6f7567682066756e647320666f72207365747460008201527f6c656d656e740000000000000000000000000000000000000000000000000000602082015250565b7f5472616e736665722031206661696c6564000000000000000000000000000000600082015250565b7f4d75737420626520646966666572656e74206f776e6572730000000000000000600082015250565b7f4e6f206d61746368696e67206f7264657220666f756e64000000000000000000600082015250565b7f5472616e736665722032206661696c6564000000000000000000000000000000600082015250565b7f5061727469636970616e74206973206e6f7420616c6c6f776564000000000000600082015250565b7f43726f7373656420627579207072696365203e20626573742073656c6c20707260008201527f6963650000000000000000000000000000000000000000000000000000000000602082015250565b7f43616e206f6e6c792064656c65746520796f7572206f776e206f726465727300600082015250565b7f7b4275797d204e6f7420656e6f7567682066756e647320666f7220736574746c60008201527f656d656e74000000000000000000000000000000000000000000000000000000602082015250565b7f53697a65206d757374206265203e203000000000000000000000000000000000600082015250565b7f54726164696e6720686173206265656e2064697361626c656400000000000000600082015250565b61561681615245565b811461562157600080fd5b50565b61562d81615257565b811461563857600080fd5b50565b61564481615283565b811461564f57600080fd5b5056fea2646970667358221220bcce3fccb003397e9811a9866a7c7d5905abd27c8abc470ebe69cf32b86180d764736f6c63430008040033",
  "linkReferences": {},
  "deployedLinkReferences": {}
}